{
  "contractName": "RegistryRequest",
  "abi": [
    {
      "inputs": [],
      "stateMutability": "payable",
      "type": "constructor",
      "payable": true
    },
    {
      "inputs": [],
      "name": "CurrentStatus",
      "outputs": [
        {
          "internalType": "enum RegistryRequest.Status",
          "name": "",
          "type": "uint8"
        }
      ],
      "stateMutability": "view",
      "type": "function",
      "constant": true
    },
    {
      "inputs": [],
      "name": "getApplicationStatus",
      "outputs": [
        {
          "internalType": "string",
          "name": "",
          "type": "string"
        }
      ],
      "stateMutability": "view",
      "type": "function",
      "constant": true
    },
    {
      "inputs": [],
      "name": "getDate",
      "outputs": [
        {
          "internalType": "string",
          "name": "",
          "type": "string"
        }
      ],
      "stateMutability": "view",
      "type": "function",
      "constant": true
    },
    {
      "inputs": [],
      "name": "getApplicantName",
      "outputs": [
        {
          "internalType": "string",
          "name": "",
          "type": "string"
        }
      ],
      "stateMutability": "view",
      "type": "function",
      "constant": true
    },
    {
      "inputs": [],
      "name": "getPropertyOccupations",
      "outputs": [
        {
          "internalType": "string",
          "name": "",
          "type": "string"
        }
      ],
      "stateMutability": "view",
      "type": "function",
      "constant": true
    },
    {
      "inputs": [],
      "name": "getMotorDealerOccupations",
      "outputs": [
        {
          "internalType": "string",
          "name": "",
          "type": "string"
        }
      ],
      "stateMutability": "view",
      "type": "function",
      "constant": true
    },
    {
      "inputs": [],
      "name": "getLicenceTerm",
      "outputs": [
        {
          "internalType": "uint256",
          "name": "",
          "type": "uint256"
        }
      ],
      "stateMutability": "view",
      "type": "function",
      "constant": true
    },
    {
      "inputs": [],
      "name": "getLicenceNumber",
      "outputs": [
        {
          "internalType": "string",
          "name": "",
          "type": "string"
        }
      ],
      "stateMutability": "view",
      "type": "function",
      "constant": true
    },
    {
      "inputs": [],
      "name": "getContactNumber",
      "outputs": [
        {
          "internalType": "uint256",
          "name": "",
          "type": "uint256"
        }
      ],
      "stateMutability": "view",
      "type": "function",
      "constant": true
    },
    {
      "inputs": [],
      "name": "getEmailAddress",
      "outputs": [
        {
          "internalType": "string",
          "name": "",
          "type": "string"
        }
      ],
      "stateMutability": "view",
      "type": "function",
      "constant": true
    },
    {
      "inputs": [],
      "name": "getApplicationFee",
      "outputs": [
        {
          "internalType": "uint256",
          "name": "",
          "type": "uint256"
        }
      ],
      "stateMutability": "view",
      "type": "function",
      "constant": true
    },
    {
      "inputs": [],
      "name": "getCheckList",
      "outputs": [
        {
          "internalType": "bool",
          "name": "",
          "type": "bool"
        }
      ],
      "stateMutability": "view",
      "type": "function",
      "constant": true
    },
    {
      "inputs": [],
      "name": "getCriminalCheck",
      "outputs": [
        {
          "internalType": "bool",
          "name": "",
          "type": "bool"
        }
      ],
      "stateMutability": "view",
      "type": "function",
      "constant": true
    },
    {
      "inputs": [],
      "name": "getCoursePass",
      "outputs": [
        {
          "internalType": "bool",
          "name": "",
          "type": "bool"
        }
      ],
      "stateMutability": "view",
      "type": "function",
      "constant": true
    },
    {
      "inputs": [],
      "name": "getDocumentation",
      "outputs": [
        {
          "internalType": "bool",
          "name": "",
          "type": "bool"
        }
      ],
      "stateMutability": "view",
      "type": "function",
      "constant": true
    },
    {
      "inputs": [
        {
          "internalType": "string",
          "name": "setApplicationStatus",
          "type": "string"
        },
        {
          "internalType": "string",
          "name": "setDate",
          "type": "string"
        },
        {
          "internalType": "string",
          "name": "setApplicantName",
          "type": "string"
        },
        {
          "internalType": "string",
          "name": "setPropertyOccupations",
          "type": "string"
        },
        {
          "internalType": "string",
          "name": "setMotorDealerOccupations",
          "type": "string"
        },
        {
          "internalType": "uint256",
          "name": "setLicenceTerm",
          "type": "uint256"
        },
        {
          "internalType": "string",
          "name": "setLicenceNumber",
          "type": "string"
        }
      ],
      "name": "setApplicationBasicInfo1",
      "outputs": [],
      "stateMutability": "nonpayable",
      "type": "function"
    },
    {
      "inputs": [
        {
          "internalType": "uint256",
          "name": "setContactNumber",
          "type": "uint256"
        },
        {
          "internalType": "string",
          "name": "setEmailAddress",
          "type": "string"
        },
        {
          "internalType": "uint256",
          "name": "setApplicationFee",
          "type": "uint256"
        },
        {
          "internalType": "bool",
          "name": "setCheckList",
          "type": "bool"
        },
        {
          "internalType": "bool",
          "name": "setCoursePass",
          "type": "bool"
        }
      ],
      "name": "setApplicationBasicInfo2",
      "outputs": [],
      "stateMutability": "nonpayable",
      "type": "function"
    },
    {
      "inputs": [
        {
          "internalType": "bool",
          "name": "setDocumentation",
          "type": "bool"
        },
        {
          "internalType": "bool",
          "name": "setCriminalCheck",
          "type": "bool"
        },
        {
          "internalType": "bool",
          "name": "setCoursePass",
          "type": "bool"
        }
      ],
      "name": "setValidateInfo",
      "outputs": [],
      "stateMutability": "nonpayable",
      "type": "function"
    },
    {
      "inputs": [
        {
          "internalType": "string",
          "name": "setApplicationStatus",
          "type": "string"
        }
      ],
      "name": "setApprovalStatus",
      "outputs": [],
      "stateMutability": "nonpayable",
      "type": "function"
    },
    {
      "inputs": [
        {
          "internalType": "address",
          "name": "account",
          "type": "address"
        },
        {
          "internalType": "uint256",
          "name": "amount",
          "type": "uint256"
        }
      ],
      "name": "addPaymentToList",
      "outputs": [],
      "stateMutability": "nonpayable",
      "type": "function"
    },
    {
      "inputs": [
        {
          "internalType": "address",
          "name": "account",
          "type": "address"
        }
      ],
      "name": "removePaymentFromList",
      "outputs": [],
      "stateMutability": "nonpayable",
      "type": "function"
    },
    {
      "inputs": [
        {
          "internalType": "address",
          "name": "account",
          "type": "address"
        }
      ],
      "name": "getPaymentByAccount",
      "outputs": [
        {
          "internalType": "uint256",
          "name": "",
          "type": "uint256"
        }
      ],
      "stateMutability": "view",
      "type": "function",
      "constant": true
    },
    {
      "inputs": [],
      "name": "addAgentToList",
      "outputs": [],
      "stateMutability": "nonpayable",
      "type": "function"
    },
    {
      "inputs": [
        {
          "internalType": "string",
          "name": "licence",
          "type": "string"
        }
      ],
      "name": "getAgentByLicence",
      "outputs": [
        {
          "internalType": "string",
          "name": "",
          "type": "string"
        }
      ],
      "stateMutability": "view",
      "type": "function",
      "constant": true
    },
    {
      "inputs": [
        {
          "internalType": "address",
          "name": "ad",
          "type": "address"
        }
      ],
      "name": "getBalance",
      "outputs": [
        {
          "internalType": "uint256",
          "name": "",
          "type": "uint256"
        }
      ],
      "stateMutability": "view",
      "type": "function",
      "constant": true
    },
    {
      "inputs": [],
      "name": "getAmountToBePaid",
      "outputs": [
        {
          "internalType": "uint256",
          "name": "",
          "type": "uint256"
        }
      ],
      "stateMutability": "view",
      "type": "function",
      "constant": true
    },
    {
      "inputs": [],
      "name": "getAmountToBeRefund",
      "outputs": [
        {
          "internalType": "uint256",
          "name": "",
          "type": "uint256"
        }
      ],
      "stateMutability": "view",
      "type": "function",
      "constant": true
    },
    {
      "inputs": [],
      "name": "payTheFeeToContract",
      "outputs": [],
      "stateMutability": "payable",
      "type": "function",
      "payable": true
    },
    {
      "inputs": [
        {
          "internalType": "address payable",
          "name": "governAccont",
          "type": "address"
        },
        {
          "internalType": "uint256",
          "name": "payAmount",
          "type": "uint256"
        }
      ],
      "name": "payTheFeeByETH",
      "outputs": [
        {
          "internalType": "bool",
          "name": "",
          "type": "bool"
        }
      ],
      "stateMutability": "payable",
      "type": "function",
      "payable": true
    },
    {
      "inputs": [],
      "name": "checkEligibility",
      "outputs": [
        {
          "internalType": "bool",
          "name": "",
          "type": "bool"
        }
      ],
      "stateMutability": "nonpayable",
      "type": "function"
    }
  ],
  "bytecode": "0x608060405260006012556040518060400160405280600681526020017f4147454e5431000000000000000000000000000000000000000000000000000081525060106040516200004f90620001ee565b9081526020016040518091039020908051906020019062000072929190620000e3565b506040518060400160405280600681526020017f4147454e543200000000000000000000000000000000000000000000000000008152506010604051620000b99062000255565b90815260200160405180910390209080519060200190620000dc929190620000e3565b50620002d1565b828054620000f1906200029b565b90600052602060002090601f01602090048101928262000115576000855562000161565b82601f106200013057805160ff191683800117855562000161565b8280016001018555821562000161579182015b828111156200016057825182559160200191906001019062000143565b5b50905062000170919062000174565b5090565b5b808211156200018f57600081600090555060010162000175565b5090565b600081905092915050565b7f4141474530303030303031000000000000000000000000000000000000000000600082015250565b6000620001d6600b8362000193565b9150620001e3826200019e565b600b82019050919050565b6000620001fb82620001c7565b9150819050919050565b7f4141474530303030303032000000000000000000000000000000000000000000600082015250565b60006200023d600b8362000193565b91506200024a8262000205565b600b82019050919050565b600062000262826200022e565b9150819050919050565b7f4e487b7100000000000000000000000000000000000000000000000000000000600052602260045260246000fd5b60006002820490506001821680620002b457607f821691505b60208210811415620002cb57620002ca6200026c565b5b50919050565b611a4980620002e16000396000f3fe6080604052600436106101cd5760003560e01c80636f05ea7a116100f7578063c4382fa611610095578063e30beccf11610064578063e30beccf14610606578063e3306a6f14610631578063e893d05f1461065c578063f8b2cb4f14610699576101cd565b8063c4382fa614610557578063d48991be14610582578063df23624a146105ad578063e24ad501146105d6576101cd565b80638ec3fda5116100d15780638ec3fda5146104ad5780639c1320ed146104d8578063a2579cdf14610503578063bd27aae61461052e576101cd565b80636f05ea7a1461042e578063735f0e8a146104595780637a76e86514610482576101cd565b8063260bb6f71161016f5780635cb0d7c41161013e5780635cb0d7c4146103a55780635e8a4629146103bc5780635f9e94e9146103c657806369497cdb14610403576101cd565b8063260bb6f7146102fb578063430fe9c114610326578063514cdcb2146103515780635440d8311461037c576101cd565b806307b4fd33116101ab57806307b4fd331461025357806312e443ac1461027c57806314cd5e83146102a55780631c3e551c146102d0576101cd565b806301f851fb146101d2578063049e45d7146101fd5780630748794714610228575b600080fd5b3480156101de57600080fd5b506101e76106d6565b6040516101f491906111cf565b60405180910390f35b34801561020957600080fd5b50610212610768565b60405161021f919061120c565b60405180910390f35b34801561023457600080fd5b5061023d610800565b60405161024a919061120c565b60405180910390f35b34801561025f57600080fd5b5061027a600480360381019061027591906113a6565b610817565b005b34801561028857600080fd5b506102a3600480360381019061029e919061154e565b6108b1565b005b3480156102b157600080fd5b506102ba6108f9565b6040516102c7919061120c565b60405180910390f35b3480156102dc57600080fd5b506102e5610910565b6040516102f291906111cf565b60405180910390f35b34801561030757600080fd5b506103106109a2565b60405161031d919061120c565b60405180910390f35b34801561033257600080fd5b5061033b6109b9565b60405161034891906111cf565b60405180910390f35b34801561035d57600080fd5b50610366610a4b565b60405161037391906111cf565b60405180910390f35b34801561038857600080fd5b506103a3600480360381019061039e919061158e565b610add565b005b3480156103b157600080fd5b506103ba610af7565b005b6103c4610b32565b005b3480156103d257600080fd5b506103ed60048036038101906103e891906115d7565b610b34565b6040516103fa9190611613565b60405180910390f35b34801561040f57600080fd5b50610418610b7d565b60405161042591906111cf565b60405180910390f35b34801561043a57600080fd5b50610443610c0f565b6040516104509190611613565b60405180910390f35b34801561046557600080fd5b50610480600480360381019061047b919061165a565b610c19565b005b34801561048e57600080fd5b50610497610c6c565b6040516104a49190611613565b60405180910390f35b3480156104b957600080fd5b506104c2610c76565b6040516104cf9190611613565b60405180910390f35b3480156104e457600080fd5b506104ed610c80565b6040516104fa9190611613565b60405180910390f35b34801561050f57600080fd5b50610518610c8a565b6040516105259190611613565b60405180910390f35b34801561053a57600080fd5b50610555600480360381019061055091906116ad565b610c94565b005b34801561056357600080fd5b5061056c610d2b565b60405161057991906111cf565b60405180910390f35b34801561058e57600080fd5b50610597610dbd565b6040516105a491906111cf565b60405180910390f35b3480156105b957600080fd5b506105d460048036038101906105cf91906115d7565b610e4f565b005b6105f060048036038101906105eb9190611782565b610e95565b6040516105fd919061120c565b60405180910390f35b34801561061257600080fd5b5061061b610f0d565b604051610628919061120c565b60405180910390f35b34801561063d57600080fd5b50610646610f24565b6040516106539190611839565b60405180910390f35b34801561066857600080fd5b50610683600480360381019061067e919061158e565b610f35565b60405161069091906111cf565b60405180910390f35b3480156106a557600080fd5b506106c060048036038101906106bb91906115d7565b610fe5565b6040516106cd9190611613565b60405180910390f35b6060600680546106e590611883565b80601f016020809104026020016040519081016040528092919081815260200182805461071190611883565b801561075e5780601f106107335761010080835404028352916020019161075e565b820191906000526020600020905b81548152906001019060200180831161074157829003601f168201915b5050505050905090565b6000600d60009054906101000a900460ff1680156107925750600d60019054906101000a900460ff165b80156107aa5750600d60029054906101000a900460ff165b156107cf576001600d60046101000a81548160ff0219169083151502179055506107eb565b6000600d60046101000a81548160ff0219169083151502179055505b600d60049054906101000a900460ff16905090565b6000600d60029054906101000a900460ff16905090565b866003908051906020019061082d929190611006565b508560049080519060200190610844929190611006565b50846005908051906020019061085b929190611006565b508360069080519060200190610872929190611006565b508260079080519060200190610889929190611006565b508160088190555080600990805190602001906108a7929190611006565b5050505050505050565b80600e60008473ffffffffffffffffffffffffffffffffffffffff1673ffffffffffffffffffffffffffffffffffffffff168152602001908152602001600020819055505050565b6000600d60039054906101000a900460ff16905090565b60606003805461091f90611883565b80601f016020809104026020016040519081016040528092919081815260200182805461094b90611883565b80156109985780601f1061096d57610100808354040283529160200191610998565b820191906000526020600020905b81548152906001019060200180831161097b57829003601f168201915b5050505050905090565b6000600d60019054906101000a900460ff16905090565b6060600480546109c890611883565b80601f01602080910402602001604051908101604052809291908181526020018280546109f490611883565b8015610a415780601f10610a1657610100808354040283529160200191610a41565b820191906000526020600020905b815481529060010190602001808311610a2457829003601f168201915b5050505050905090565b606060058054610a5a90611883565b80601f0160208091040260200160405190810160405280929190818152602001828054610a8690611883565b8015610ad35780601f10610aa857610100808354040283529160200191610ad3565b820191906000526020600020905b815481529060010190602001808311610ab657829003601f168201915b5050505050905090565b8060039080519060200190610af3929190611006565b5050565b600560106009604051610b0a9190611954565b9081526020016040518091039020908054610b2490611883565b610b2f92919061108c565b50565b565b6000600e60008373ffffffffffffffffffffffffffffffffffffffff1673ffffffffffffffffffffffffffffffffffffffff168152602001908152602001600020549050919050565b606060078054610b8c90611883565b80601f0160208091040260200160405190810160405280929190818152602001828054610bb890611883565b8015610c055780601f10610bda57610100808354040283529160200191610c05565b820191906000526020600020905b815481529060010190602001808311610be857829003601f168201915b5050505050905090565b6000601254905090565b82600d60036101000a81548160ff02191690831515021790555081600d60016101000a81548160ff02191690831515021790555080600d60026101000a81548160ff021916908315150217905550505050565b6000600c54905090565b6000600a54905090565b6000600854905090565b6000601154905090565b84600a8190555083600b9080519060200190610cb1929190611006565b506103e883610cc0919061199a565b600c8190555060008060006101000a81548160ff02191690836004811115610ceb57610cea6117c2565b5b021790555081600d60006101000a81548160ff02191690831515021790555080600d60026101000a81548160ff0219169083151502179055505050505050565b6060600b8054610d3a90611883565b80601f0160208091040260200160405190810160405280929190818152602001828054610d6690611883565b8015610db35780601f10610d8857610100808354040283529160200191610db3565b820191906000526020600020905b815481529060010190602001808311610d9657829003601f168201915b5050505050905090565b606060098054610dcc90611883565b80601f0160208091040260200160405190810160405280929190818152602001828054610df890611883565b8015610e455780601f10610e1a57610100808354040283529160200191610e45565b820191906000526020600020905b815481529060010190602001808311610e2857829003601f168201915b5050505050905090565b600e60008273ffffffffffffffffffffffffffffffffffffffff1673ffffffffffffffffffffffffffffffffffffffff1681526020019081526020016000206000905550565b60008030905060008173ffffffffffffffffffffffffffffffffffffffff163110610f02578373ffffffffffffffffffffffffffffffffffffffff166108fc849081150290604051600060405180830381858888f19350505050158015610f00573d6000803e3d6000fd5b505b600191505092915050565b6000600d60009054906101000a900460ff16905090565b60008054906101000a900460ff1681565b6060601082604051610f4791906119fc565b90815260200160405180910390208054610f6090611883565b80601f0160208091040260200160405190810160405280929190818152602001828054610f8c90611883565b8015610fd95780601f10610fae57610100808354040283529160200191610fd9565b820191906000526020600020905b815481529060010190602001808311610fbc57829003601f168201915b50505050509050919050565b60008173ffffffffffffffffffffffffffffffffffffffff16319050919050565b82805461101290611883565b90600052602060002090601f016020900481019282611034576000855561107b565b82601f1061104d57805160ff191683800117855561107b565b8280016001018555821561107b579182015b8281111561107a57825182559160200191906001019061105f565b5b5090506110889190611119565b5090565b82805461109890611883565b90600052602060002090601f0160209004810192826110ba5760008555611108565b82601f106110cb5780548555611108565b8280016001018555821561110857600052602060002091601f016020900482015b828111156111075782548255916001019190600101906110ec565b5b5090506111159190611119565b5090565b5b8082111561113257600081600090555060010161111a565b5090565b600081519050919050565b600082825260208201905092915050565b60005b83811015611170578082015181840152602081019050611155565b8381111561117f576000848401525b50505050565b6000601f19601f8301169050919050565b60006111a182611136565b6111ab8185611141565b93506111bb818560208601611152565b6111c481611185565b840191505092915050565b600060208201905081810360008301526111e98184611196565b905092915050565b60008115159050919050565b611206816111f1565b82525050565b600060208201905061122160008301846111fd565b92915050565b6000604051905090565b600080fd5b600080fd5b600080fd5b600080fd5b7f4e487b7100000000000000000000000000000000000000000000000000000000600052604160045260246000fd5b61127d82611185565b810181811067ffffffffffffffff8211171561129c5761129b611245565b5b80604052505050565b60006112af611227565b90506112bb8282611274565b919050565b600067ffffffffffffffff8211156112db576112da611245565b5b6112e482611185565b9050602081019050919050565b82818337600083830152505050565b600061131361130e846112c0565b6112a5565b90508281526020810184848401111561132f5761132e611240565b5b61133a8482856112f1565b509392505050565b600082601f8301126113575761135661123b565b5b8135611367848260208601611300565b91505092915050565b6000819050919050565b61138381611370565b811461138e57600080fd5b50565b6000813590506113a08161137a565b92915050565b600080600080600080600060e0888a0312156113c5576113c4611231565b5b600088013567ffffffffffffffff8111156113e3576113e2611236565b5b6113ef8a828b01611342565b975050602088013567ffffffffffffffff8111156114105761140f611236565b5b61141c8a828b01611342565b965050604088013567ffffffffffffffff81111561143d5761143c611236565b5b6114498a828b01611342565b955050606088013567ffffffffffffffff81111561146a57611469611236565b5b6114768a828b01611342565b945050608088013567ffffffffffffffff81111561149757611496611236565b5b6114a38a828b01611342565b93505060a06114b48a828b01611391565b92505060c088013567ffffffffffffffff8111156114d5576114d4611236565b5b6114e18a828b01611342565b91505092959891949750929550565b600073ffffffffffffffffffffffffffffffffffffffff82169050919050565b600061151b826114f0565b9050919050565b61152b81611510565b811461153657600080fd5b50565b60008135905061154881611522565b92915050565b6000806040838503121561156557611564611231565b5b600061157385828601611539565b925050602061158485828601611391565b9150509250929050565b6000602082840312156115a4576115a3611231565b5b600082013567ffffffffffffffff8111156115c2576115c1611236565b5b6115ce84828501611342565b91505092915050565b6000602082840312156115ed576115ec611231565b5b60006115fb84828501611539565b91505092915050565b61160d81611370565b82525050565b60006020820190506116286000830184611604565b92915050565b611637816111f1565b811461164257600080fd5b50565b6000813590506116548161162e565b92915050565b60008060006060848603121561167357611672611231565b5b600061168186828701611645565b935050602061169286828701611645565b92505060406116a386828701611645565b9150509250925092565b600080600080600060a086880312156116c9576116c8611231565b5b60006116d788828901611391565b955050602086013567ffffffffffffffff8111156116f8576116f7611236565b5b61170488828901611342565b945050604061171588828901611391565b935050606061172688828901611645565b925050608061173788828901611645565b9150509295509295909350565b600061174f826114f0565b9050919050565b61175f81611744565b811461176a57600080fd5b50565b60008135905061177c81611756565b92915050565b6000806040838503121561179957611798611231565b5b60006117a78582860161176d565b92505060206117b885828601611391565b9150509250929050565b7f4e487b7100000000000000000000000000000000000000000000000000000000600052602160045260246000fd5b60058110611802576118016117c2565b5b50565b6000819050611813826117f1565b919050565b600061182382611805565b9050919050565b61183381611818565b82525050565b600060208201905061184e600083018461182a565b92915050565b7f4e487b7100000000000000000000000000000000000000000000000000000000600052602260045260246000fd5b6000600282049050600182168061189b57607f821691505b602082108114156118af576118ae611854565b5b50919050565b600081905092915050565b60008190508160005260206000209050919050565b600081546118e281611883565b6118ec81866118b5565b9450600182166000811461190757600181146119185761194b565b60ff1983168652818601935061194b565b611921856118c0565b60005b8381101561194357815481890152600182019150602081019050611924565b838801955050505b50505092915050565b600061196082846118d5565b915081905092915050565b7f4e487b7100000000000000000000000000000000000000000000000000000000600052601260045260246000fd5b60006119a582611370565b91506119b083611370565b9250826119c0576119bf61196b565b5b828204905092915050565b60006119d682611136565b6119e081856118b5565b93506119f0818560208601611152565b80840191505092915050565b6000611a0882846119cb565b91508190509291505056fea2646970667358221220e2d06285aa22fc7c99b3ec82191a74448abbc416cde5786c2ed2299269c283cf64736f6c63430008090033",
  "immutableReferences": {},
  "source": "pragma solidity >=0.4.22 <0.9.0;\n\n\ncontract RegistryRequest{\n\n    enum Status { New, Approved, Rejected, InProgress, Resubmit }\n\n    Status public CurrentStatus;\n\n    address AgentAccont;\n    address payable GovernAccont;\n    address ContractAccont;\n\n    // Agent Registry\n    string ApplicationStatus;\n    string Date;\n    string ApplicantName;\n\n    string PropertyOccupations;\n    string MotorDealerOccupations;\n\n    uint LicenceTerm;\n\n    string LicenceNumber;\n\n\n    uint ContactNumber;\n    string EmailAddress;\n\n\n    uint ApplicationFee;\n\n    // Checklist values\n    bool CheckList;\n    bool CriminalCheck;\n    bool CoursePass;\n\n    bool Documentation;\n\n    // If the application is eligible\n    bool Eligibility;\n\n    // string[] ;\n    mapping (address => uint) paymentAmount; //first value is address, 2nd value is the payment amount\n    // Payed list\n    mapping (address => uint) payedList; //first value is address, 2nd value is the payment amount\n    // Licence Number list\n    mapping (string => string) licenceList; //first value is licence, 2nd value is the agent name\n\n    uint amountToBePaid;\n    uint amountToBeRefund = 0;\n\n\n    constructor () public payable {\n        licenceList[\"AAGE0000001\"] = \"AGENT1\";\n        licenceList[\"AAGE0000002\"] = \"AGENT2\";\n    }\n\n    // Agent Application Section function\n    function getApplicationStatus() public view returns (string memory) {\n        return ApplicationStatus;\n    }\n\n    function getDate() public view returns (string memory) {\n        return Date;\n    }\n\n    function getApplicantName() public view returns (string memory) {\n        return ApplicantName;\n    }\n\n    function getPropertyOccupations() public view returns (string memory) {\n        return PropertyOccupations;\n    }\n\n    function getMotorDealerOccupations() public view returns (string memory) {\n        return MotorDealerOccupations;\n    }\n\n    function getLicenceTerm() public view returns (uint) {\n        return LicenceTerm;\n    }\n\n    function getLicenceNumber() public view returns (string memory) {\n        return LicenceNumber;\n    }\n\n    function getContactNumber() public view returns (uint) {\n        return ContactNumber;\n    }\n\n    function getEmailAddress() public view returns (string memory) {\n        return EmailAddress;\n    }\n\n    function getApplicationFee() public view returns (uint) {\n        return ApplicationFee;\n    }\n\n\n    function getCheckList() public view returns (bool) {\n        return CheckList;\n    }\n\n    function getCriminalCheck() public view returns (bool) {\n        return CriminalCheck;\n    }\n\n    function getCoursePass() public view returns (bool) {\n        return CoursePass;\n    }\n\n    function getDocumentation() public view returns (bool) {\n        return Documentation;\n    }\n\n    /*\n    function getEligibility() public view returns (bool) {\n        return Eligibility;\n    }\n    */\n\n    \n\n    function setApplicationBasicInfo1(string memory setApplicationStatus, string memory setDate, string memory setApplicantName, string memory setPropertyOccupations, string memory setMotorDealerOccupations, uint setLicenceTerm, string memory setLicenceNumber) public {\n      ApplicationStatus = setApplicationStatus;\n      Date = setDate;\n\t    ApplicantName = setApplicantName;\n      PropertyOccupations = setPropertyOccupations;\n      MotorDealerOccupations = setMotorDealerOccupations;\n\t    LicenceTerm = setLicenceTerm;\n\t    LicenceNumber = setLicenceNumber;\n    }\n\n    function setApplicationBasicInfo2(uint setContactNumber, string memory setEmailAddress, uint setApplicationFee, bool setCheckList, bool setCoursePass) public {\n      ContactNumber = setContactNumber;\n\t    EmailAddress = setEmailAddress;\n\t    ApplicationFee = setApplicationFee / 1000;\n\t    CurrentStatus = Status.New;\n\t    CheckList = setCheckList;\n      //CriminalCheck = setCriminalCheck;\n      CoursePass = setCoursePass;\n    }\n\n    function setValidateInfo(bool setDocumentation, bool setCriminalCheck, bool setCoursePass) public {\n      Documentation = setDocumentation;\n      CriminalCheck = setCriminalCheck;\n      CoursePass = setCoursePass;\n    }\n\n    function setApprovalStatus(string memory setApplicationStatus) public {\n        ApplicationStatus = setApplicationStatus;\n    }\n\n    function addPaymentToList(address account,uint amount) public{\n        paymentAmount[account] =  amount;\n\n    }\n\n    function removePaymentFromList(address account) public{\n        delete paymentAmount[account];\n    }\n\n    function getPaymentByAccount(address account) public view returns (uint) {\n        return paymentAmount[account];\n    }\n\n    function addAgentToList() public{\n        licenceList[LicenceNumber] =  ApplicantName;\n\n    }\n\n    function getAgentByLicence(string memory licence) public view returns (string memory) {\n        return licenceList[licence];\n    }\n\n    function getBalance(address ad) public view returns (uint) {\n        return ad.balance;\n    }\n\n    function getAmountToBePaid() public view returns (uint) {\n        return amountToBePaid;\n    }\n\n    function getAmountToBeRefund() public view returns (uint) {\n        return amountToBeRefund;\n    }\n\n    function payTheFeeToContract() public payable {\n\n\t}\n\n    function payTheFeeByETH(address payable governAccont, uint payAmount) public payable returns (bool) {\n\n\t\t\n        address myAddress = address(this);\n\n        if (myAddress.balance >= 0) {\n            governAccont.transfer(payAmount);\n        }\n        return true;\n\t\t\n\t}\n\n\n\tfunction checkEligibility() public returns (bool) {\n      if (CheckList && CriminalCheck && CoursePass) {\n        Eligibility = true;\n      } else {\n        Eligibility = false;\n      }\n      return Eligibility;\n    }\n\n/*\n    function approveApplication() public payable {\n        if(checkEligibility()) {\n            CurrentStatus = Status.Approved;\n\n        } else {\n            CurrentStatus = Status.Rejected;\n        }\n        calculateApplicationFee();\n        addPaymentToList(AgentAccont, amountToBePaid);\n        payTheFeeByETH(GovernAccont,amountToBePaid);\n        \n        if (amountToBeRefund != 0) {\n          addPaymentToList(AgentAccont, amountToBeRefund);\n          payTheFeeByETH(AgentAccont, amountToBeRefund);\n        }\n        \n\n    }\n  \n    function rejectApplication() public {\n        CurrentStatus = Status.Rejected;\n    }\n*/\n    \n}\n",
  "sourcePath": "/Users/feiyanchen/Documents/Study/UQ/2021-S2/DECO7862/mydapp/contracts/RegistryRequest.sol",
  "compiler": {
    "name": "solc",
    "version": "0.8.9+commit.e5eed63a.Emscripten.clang"
  },
  "schemaVersion": "3.4.3",
  "updatedAt": "2022-05-24T09:31:31.265Z",
  "networkType": "ethereum",
  "devdoc": {
    "kind": "dev",
    "methods": {},
    "version": 1
  },
  "userdoc": {
    "kind": "user",
    "methods": {},
    "version": 1
  }
}